:020000040800F2
:100000006808002099010008AD270008A52700080E
:10001000A9270008C9040008553A0008000000009C
:10002000000000000000000000000000153800087B
:1000300029060008000000003D32000829390008A8
:10004000B3010008B3010008B3010008B3010008C0
:10005000B3010008B3010008B3010008B3010008B0
:10006000B3010008350600083D060008B30100088A
:10007000B3010008B3010008B3010008B301000890
:10008000B3010008B3010008B3010008B301000880
:10009000B3010008B3010008B301000845060008D9
:1000A000B3010008B3010008B3010008B301000860
:1000B000B3010008B3010008B3010008B301000850
:1000C000B3010008B3010008B3010008B301000840
:1000D000B30100083D3A0008493A0008B30100089E
:1000E0002D060008B3010008B301000800F002F873
:1000F00000F042F80AA090E8000C82448344AAF180
:100100000107DA4501D100F037F8AFF2090EBAE87D
:100110000F0013F0010F18BFFB1A43F0010318473B
:10012000404E0000604E0000103A24BF78C878C1ED
:10013000FAD8520724BF30C830C144BF04680C60ED
:10014000704700000023002400250026103A28BF35
:1001500078C1FBD8520728BF30C148BF0B60704739
:10016000642900F0AB80732900F06F810020704794
:100170001FB51FBD10B510BD00F06BF91146FFF79C
:10018000F7FF03F0A1FE00F089F903B4FFF7F2FFD7
:1001900003BC00F091F90000094880470948004776
:1001A000FEE7FEE7FEE7FEE7FEE7FEE7FEE7FEE727
:1001B000FEE7FEE704480549054A064B7047000084
:1001C0002D390008ED0000086802002068080020B2
:1001D00068040020680400200FB41CB5074B06AA71
:1001E0007B4469460090059800F005F900206946B7
:1001F00000F014F91CBC5DF814FB0000390200008B
:100200002DE9F0410E460446002020622046E168B8
:10021000884730B3252805D0D4E901219047206ACA
:10022000401CF2E7E168204600278847050018D007
:10023000A5F14100192802D820354FF40067324655
:10024000294620462760FFF78BFF40B1012804D0E4
:10025000F61D26F007060836D8E7361DD6E72846ED
:10026000DAE7206ABDE8F08170B50C460546012A40
:1002700005D02878800600D5EA69002302E0012332
:1002800005E05B1C934202D2E05C0028F9D1A8692A
:10029000E618C01AA861286A184428622846AFF3F5
:1002A000008004E0D5E9012114F8010B9047B44225
:1002B000F8D32846AFF3008070BD00002DE9F0416F
:1002C0000646002410687529314616A510D0AFF3F4
:1002D0000080002802DA404213A507E031688A074F
:1002E00001D512A502E0490704D511A5012401E0BA
:1002F000AFF3008000210A2206F1240709E0B0FBD9
:10030000F2FCB0FBF2F302FB1C00303078541846CC
:10031000491C0028F3D123462A463046BDE8F04167
:1003200000F00BB8000000002D0000002B000000C2
:10033000200000007047704770472DE9F0470D46D8
:1003400099469246044600F124080168880604D5BF
:10035000E06921F01001216000E00120A84201DDE8
:10036000471B00E00027A1697A1902EB0900081A6F
:10037000A0612078C00602D42046AFF3008000269A
:1003800008E0D4E901211AF806009047206A401CD1
:10039000761C20624E45F4DB2078C0060AD5204644
:1003A000AFF3008006E0D4E9012130209047206AB5
:1003B000401C2062381EA7F10107F4DC07E0D4E9F5
:1003C000012118F805009047206A401C2062281E71
:1003D000A5F10105F3DC2046AFF30080207800068C
:1003E00002D50220BDE8F0870120FBE701694A1C25
:1003F00002610878704700B58FB0CDE90131002166
:10040000059105497944CDE9031011466846FFF787
:10041000F7FE0FB000BD0000E5FFFFFF0A6802F81D
:10042000010B0A60704710B5436913B1AFF3008048
:1004300001E0FFF719FF012010BD127800F124013F
:100440000A7000224A700122EDE711684FF0FF3276
:10045000E9E7754600F02CF8AE46050069465346BC
:1004600020F00700854618B020B5FFF7A3FEBDE8D1
:1004700020404FF000064FF000074FF000084FF00B
:10048000000BAC46ACE8C009ACE8C009ACE8C00958
:10049000ACE8C00921F007018D46704710B504464D
:1004A000AFF300802046BDE81040FFF76EBE0000AD
:1004B000004870475800002001491820ABBEFEE7F5
:1004C0002600020070470000FEE700002DE9F0431F
:1004D00081B040F6004440F2B8060025C4F20104A1
:1004E000C2F200064FF0010804E000BF0135082DFC
:1004F0004F4637D000F0C6FB306000BF00F0C2FBB3
:10050000706020464FF4007100F0A8FB20B9D6E9D6
:10051000000102308842F1D8282003F0A5FA2046D5
:100520004FF4007100F09AFBC5F1070108FA01F1E0
:1005300047EA0109002808BF27EA010900F0A2FBE9
:10054000306000BF00F09EFB706020464FF40071E9
:1005500000F084FB0028C9D0D6E9000102308842AF
:10056000F0D8C3E75FFA89F001B0BDE8F08300007E
:10057000F0B585B040F600444FF40070C4F20104B9
:100580000190022001AE012704900025204631464B
:100590000297039500F054FA20464FF400710022B0
:1005A00000F06AFB40F2145003F05EFA20464FF46C
:1005B0000071012200F060FB1E2003F055FA204676
:1005C0003146CDE9025700F03BFA282003F04CFAFF
:1005D00020464FF4007100F041FB58B9502003F061
:1005E00043FA20464FF4007100F038FB054600281E
:1005F00018BF012500F046FB40F2B806C2F2000623
:10060000306000BF00F03EFB706020464FF4007188
:1006100000F024FB20B1D6E9000102308842F1D875
:10062000284605B0F0BD0000704700004FF4805030
:1006300000F0FAB9082000F0F7B90000102000F02F
:10064000F3B9000080B5402000F0EEF9802000F002
:10065000EBF94FF48070BDE8804000F0E5B9000090
:10066000014690F82100022816D10868D1E90FC38D
:10067000026822F00E020260026822F001020260AB
:10068000012000FA03F2CCF8042081F821000020B8
:10069000002281F820207047042088630120002276
:1006A00081F820207047000080B590F821100229C1
:1006B00024D10268116821F00E0111602F21136806
:1006C000C4F202018A4240F20401C4F2020123F0A2
:1006D0000103136016DD3023C4F202039A421DD0D9
:1006E0004423C4F202039A421CD05823C4F20203EA
:1006F0009A421DD14FF4803322E000BF0421816370
:10070000012080BD0823C4F202039A420ED01C23AC
:10071000C4F202039A420BD1102311E04FF480730C
:100720000EE000BF4FF480530AE000BF012307E052
:1007300001F1680C4FF08073624508BF4FF48013DD
:100740000B60012180F82110426B002180F82010FD
:100750000AB190470021084680BD0000B0B50446AC
:1007600000F090FA054640F23C00C2F2000000782A
:10077000611C18BF044400BF00F084FA401BA04273
:10078000FAD3B0BDF0B581B07F282FDC082800F087
:100790008180102800F0D080402840F0CB8000F00D
:1007A00071FA40F23004C2F200046168401AB0F5F8
:1007B0007A7FC0F01D8141F20000C4F201004FF4C5
:1007C000005100F051FA40F2C005C2F200050120CC
:1007D000687000F057FAE9796060481CC1B20429DA
:1007E00088BF0020E871172040210FE180287BD0CE
:1007F000B0F5807F00F0CC80B0F5805F40F09A804B
:1008000000F040FA40F23005C2F200056968401A73
:10081000C828C0F0F18041F2000040F60004C4F2A4
:1008200001004FF40051C4F2010400F01DFA40F23F
:10083000C006C2F2000631783779012000297070B5
:1008400008BF012F09D120464FF400610022002784
:1008500000F012FA0120377130707179287801396F
:10086000B0FA80F0B1FA81F1400949090843012842
:1008700008BF012F07D120464FF400610022002459
:1008800000F0FAF9347100F0FDF9686028204FF4A7
:100890008051BBE000F0F6F940F23004C2F20004EF
:1008A0006168401AB0F57A7FC0F09A8040F2C005C6
:1008B000C2F20005E8790138022800F2A58041F271
:1008C0000000C4F201004FF4005100F0CDF9012006
:1008D000687000F0D7F921786060481E18BF0120C9
:1008E00020700920082191E000F0CCF940F2300599
:1008F000C2F200056968401AB0F5967F74D341F2E0
:100900000004C4F2010420464FF4005100F0ACF999
:1009100040F2C000C2F2000001214170A4F58060E5
:100920004FF4005100F0A0F900F0ACF96860172016
:1009300080216BE001B0F0BD00F0A4F940F230047A
:10094000C2F200046168411A0A20B1F57A7F4FF0C3
:1009500010015BD340F2C005C2F20005EA79012A1A
:1009600054D141F20000C4F201004FF4005100F0F4
:100970007BF90120687000F085F9E1786060481C1F
:10098000C1B2052988BF0120E0700A2010213DE096
:1009900000F078F940F23004C2F200046168401AB5
:1009A000B0F57A7F2CD341F20000C4F201004FF47D
:1009B000005100F059F940F2C0006278C2F2000024
:1009C000012141708171501CC1B2032988BF0120EF
:1009D000607000F057F9606017204FF4807115E0E7
:1009E0000920082112E000BF172080210EE000BF7F
:1009F000172040210AE000BF28204FF4805105E075
:100A000017204FF4807101E0092008214FF61442AD
:100A100040F60003CFF6FF72C4F20103995001B013
:100A2000BDE8F04000F09CB940F21441C4F201016D
:100A30000A68024214BF08607047FFF7A3BE0000B7
:100A40002DE9F04F82B00E68002E00F0038141F2D4
:100A50000042C4F20102042340F2004E904208BF5B
:100A600003234FF6FF7CC4F2010E00930024012300
:100A7000C1F2100C4FF0000A4FF0000949E000BF2E
:100A8000012704F00C030F229A402BEA020207FA16
:100A900003F34FEA9A051A4346F82520D1F804B02B
:100AA00040F20C455FEACB22DEF8082054BF22EA70
:100AB000080242EA0802C4F20105CEF808202A68BA
:100AC0005FEA8B2354BF22EA080242EA08022A6046
:100AD0005FEA8B33DEF8042054BF22EA080242EAC0
:100AE00008025FEACB33CEF80420DEF800204FF096
:100AF000010354BF22EA080242EA0802CEF80020AD
:100B00000E680AF1010A36FA0AF204F1040400F050
:100B1000A18003FA0AF816EA080FF1D04E6866457C
:100B200012DC122E56D8DFE806F0350B4549555534
:100B300055555555555555555555554D510000BFB1
:100B4000D1F80C9046E000BF4FF6FF72C1F22102CF
:100B500096420FDC0022C1F2110296421AD0002206
:100B6000C1F21202964215D00022C1F22102964231
:100B700010D02FE00022C1F2220296420AD00022B9
:100B8000C1F23102964205D00022C1F232029642F1
:100B900020D100BF8A684AB1012A14BFC0F814806E
:100BA000C0F810804FF0080914E000BF4FF00409AE
:100BB00010E000BFCA6802F108090BE04FF000091D
:100BC00008E000BFCA6802F1040903E0CA6802F144
:100BD0000C0900BF22460646BAF1080F24BF203A8E
:100BE000043637680F25954027EA050509FA02F211
:100BF0002A433260CA79D2067FF582AF41F21803E8
:100C0000C4F202031A68AEF57E7642F001021A6061
:100C10001A6802F001020192019A2AF0030256F8C2
:100C200002B040F60002C4F20102904210D040F639
:100C30000042C4F2010290423FF422AF41F20002AE
:100C4000C4F20102009F904208BF022719E700BFCB
:100C5000002716E702B0BDE8F08F0000806808406A
:100C600018BF012070470000C26802EA01039143E7
:100C700041EA034101617047002A08BF090401618C
:100C80007047000040F26420C2F200000068704724
:100C900040F23C0040F26421C2F20000C2F20001C6
:100CA00000780A68104408607047000080B542F27E
:100CB0000000C4F20200016841F01001016003204D
:100CC00000F0A2F80F2000F005F800F027F800204F
:100CD00080BD000070B540F23C06C2F2000640F252
:100CE00044013278C2F200014FF47A730968B3FB11
:100CF000F2F20446B1FBF2F1084600F077FB0F2C4C
:100D00004FF0010508D838B94FF0FF3021460022D6
:100D1000002500F04DF87460284670BD82B041F2A5
:100D20001800C4F202000168022241F001010160D2
:100D3000016801F0010101910199416841F0805180
:100D40004160406800F08050009000980420C4F298
:100D50000100016862F31A61016002B0704700008F
:100D6000002848BF7047C1B200F01F00012202FAFC
:100D700000F04EF28022CEF2000242EAD10121F0D0
:100D80000301086070470000002848BF7047C1B2E7
:100D900000F01F00012202FA00F04EF20012CEF223
:100DA000000242EAD10121F003010860704700000F
:100DB00010B54EF60C5CCEF2000CDCF80030C3F33C
:100DC000022E8EF00704042C28BF0424BEF1030376
:100DD0004FF0FF3E0EFA04F438BF0023A1439940C0
:100DE0000EFA03F39A43114300F00F0200F160433F
:100DF0000901043A03F564436244002848BF02F144
:100E00000C03197010BD00004EF60C51CEF200011B
:100E10000A684FF6FF031A4060F30A2242F080602E
:100E200040F0FD70086070472DE9F04381B0002864
:100E300000F0858042F20008C4F202080446D8F8A7
:100E400000000D4600F0070088420CD2D8F80000E0
:100E500020F007002843C8F80000D8F8000000F090
:100E60000700A8426BD1206841F204098107C4F24F
:100E7000020917D5410705D5D9F8001041F4E06102
:100E8000C9F80010010705D5D9F8001041F46051E8
:100E9000C9F80010D9F80010A26821F0F001114340
:100EA000C9F80010C00741D1D8F8000000F00700D1
:100EB000A8420CD9D8F8000020F007002843C8F851
:100EC0000000D8F8000000F00700A84237D12068E1
:100ED000410707D5D9F80010E26821F4E061114319
:100EE000C9F80010000708D5D9F80000216920F4DE
:100EF000605040EAC100C9F80000D9F8002002F0B3
:100F00000C00082841F20020C0F27A0050D144F6CB
:100F10000073C2F38341C0F60003595CD2033BD493
:100F200040F60010C0F23D00484341E060680228EE
:100F30000AD001282AD159F8041C890308D40120B9
:100F400001B0BDE8F08300BF59F8041C8901F6D553
:100F5000D9F8001021F003010843C9F80000FFF799
:100F600091FE064641F28837D9F80000616800F02A
:100F70000C00B0EB810F97D0FFF784FE801BB842C6
:100F8000F2D9032001B0BDE8F08300BF59F8041C7A
:100F90008907D4D5DCE700BFD9F8002044F6EC631C
:100FA000C2F34042C0F600039A5C4843B0FBF2F043
:100FB000D9F8001044F6D462C1F30311C0F6000260
:100FC000515C40F2440220FA01F140F24000C2F2CA
:100FD00000000068C2F200021160FFF77BFE0020F3
:100FE00001B0BDE8F083000040F2440041F204018A
:100FF000C2F20000C4F202010068096844F6E4622B
:10100000C1F30221C0F60002515CC84070470000E5
:1010100040F2440041F20401C2F20000C4F20201B5
:101020000068096844F6E462C1F3C221C0F6000218
:10103000515CC840704700002DE9F04182B00028A3
:1010400068D00446007841F20006C007C4F20206E8
:1010500025D0706800F00C0004281BD0706800F0E8
:101060000C00082802D17068C00313D460680028FF
:1010700000F06881B0F5A02F00F07C81B0F5803FD2
:1010800000F07C81306820F480303060306820F4DB
:10109000802076E13068800301D56068D0B3207885
:1010A000800718D5706810F00C0F07D0706800F03A
:1010B0000C0008286ED17068C0036BD430688007BC
:1010C00002D52069012825D13068616920F0F80037
:1010D00040EAC1003060207800071FD42078400724
:1010E00032D4E56995B1706800F00C00082840F032
:1010F0008F80012D0ED07068216A00F480328A4200
:1011000008D1616A00F47010884203D1002002B057
:10111000BDE8F081012002B0BDE8F081A06900289F
:1011200062D00020C4F242200121C0F88014FFF7F1
:10113000A9FD0546706A800700F18C80FFF7A2FDCB
:10114000401B0228F6D92AE1F06910F0805808D136
:10115000F06940F08050F061F06900F0805000903C
:10116000009847F20007C4F200073868C00529D488
:10117000386840F480703860FFF784FD054600BF92
:101180003868C0051ED4FFF77DFD401B6428F7D9E1
:1011900005E100BF2069002840F20000C4F24220AF
:1011A00000F0828001210160FFF76CFD054600BF61
:1011B000306880073FF588AFFFF764FD401B0228C9
:1011C000F6D9ECE0E068002800F08080052800F007
:1011D0009780012800F09880306A20F0010030628A
:1011E000306A20F0040092E00020C4F24220002186
:1011F000C0F88014FFF746FD054600BF706A8007FF
:101200007FF56CAFFFF73EFD401B0228F6D9C6E024
:101210000027C4F2422700203866FFF733FD022D75
:1012200005460BD13068800140F1BE80FFF72AFDF2
:10123000401B02284FF00300F4D968E730688001B2
:101240007FF564AFFFF71EFD401B02284FF003003F
:10125000F4D95CE740F24400C2F20000006844F6B2
:10126000D351C1F26201A0FB0101480A019000BF05
:1012700000BF0198411E002801913FF42FAF00BF2D
:101280000198411E002801913FF428AF00BF01984A
:10129000411E002801913FF421AF00BF0198411E7B
:1012A00000280191E4D119E700210160FFF7EAFC71
:1012B000054600BF306880077FF50DAFFFF7E2FC01
:1012C000401B02284FF00300F4D920E7306A20F0D9
:1012D00001003062306A20F004003062FFF7D2FC77
:1012E000054641F2883700BF306A800720D5FFF7F6
:1012F000C9FC401BB8424FF00300F5D907E700BF17
:10130000306A40F004003062306A40F00100306220
:10131000FFF7B8FC054641F2883700BF306A800706
:1013200006D4FFF7AFFC401BB842F7D937E000BF47
:10133000B8F1000F7FF4D5AEF06920F08050F06175
:10134000CFE600BF306820F480303060306820F491
:1013500080203060FFF796FC054600BF30688003B0
:101360007FF59DAEFFF78EFC401B64284FF0030015
:10137000F4D9CCE6306840F480203060306840F426
:1013800080303060FFF77EFC054600BF3068800388
:101390003FF585AEFFF776FC401B6428F6D90320A5
:1013A00002B0BDE8F08100BF206AB0F5803F05D1F2
:1013B0007168A26821F40031114371607168626A3A
:1013C00021F4741111430843706001203866FFF75F
:1013D00059FC0446306880013FF598AEFFF752FC97
:1013E000001B02284FF00300F4D990E6411E0020B4
:1013F000B0EB116F1CBF012070474EF21002CEF20D
:10140000000251604EF62351CEF20001F0230B7022
:101410000721906011607047B0B590F83C20012A18
:1014200004BF0220B0BD01F108053CCDD1E900CEDA
:1014300023F47C5322F470521A432EF4F0431A43DF
:101440002CF4E0431A4324F4C0431A432A43C969E5
:1014500022F48042036811435964002180F83C1053
:101460000846B0BD10B590F83C20012A4FF00202AA
:1014700033D080F83D200268D2F804E0D2F808C0EA
:101480000C682EF07003234340F2FF74C4F2000492
:10149000A24253600ADCB2F1804F13D040F2004305
:1014A000C4F200039A420DD011E000BF42F600439F
:1014B000C4F201039A4205D040F60003C4F20003CF
:1014C0009A4204D149682CF08003194391600121AC
:1014D000002280F83D1080F83C20104610BD00002E
:1014E000002804BF0120704710B5044690F83D0065
:1014F00028B9002084F83C00204600F067F802205C
:1015000084F83D00206840F2FF730268C4F20003D3
:1015100042F6004C9842C4F2010C15DCB0F1804F49
:101520001AD040F20041C4F20001884214D098421F
:1015300018DCB0F1804F1DD040F20041C4F2000130
:10154000884217D01AE000BF604505D040F6000180
:10155000C4F200018842EAD1A16822F070020A4375
:101560009842E6DD604505D040F60001C4F2000176
:10157000884203D1216922F440720A43A36922F010
:101580008001D4F804E0E268194360450160C2625A
:10159000C0F828E002D16169CCF830100121416126
:1015A000002084F8461084F83E1084F83F1084F838
:1015B000401084F8411084F8421084F8431084F8F5
:1015C000441084F8451084F83D1010BD82B00068C6
:1015D000B0F1804F14D042F60041C4F201018842BC
:1015E0001BD141F21800C4F20200016841F400610D
:1015F0000160006800F400600190019802B070473B
:1016000041F21800C4F20200416841F0010141605A
:10161000406800F001000090009802B070470000A0
:1016200090F83D1001291CBF01207047022180F86D
:101630003D10006840F2FF71C4F20001884209DCED
:10164000B0F1804F12D040F20041C4F20001884254
:101650000CD012E042F60041C4F20101884205D0EC
:1016600040F60001C4F20001884206D1816801F011
:101670000701062904BF00207047016841F00101FD
:10168000016000207047000080B590F83C20012ADE
:101690004FF0020200F0C28080F83D20D0F800C078
:1016A0004FF67772DCF8083023EA0202CCF8082003
:1016B0000B684F2B28DC1F2B44DD202B45D0302B13
:1016C00043D0402B40F0AC80D1F804E0C968DCF88E
:1016D0002030DCF8202022F00102CCF82020DCF8B9
:1016E000182022F0F00242EA011123F00A0242EA35
:1016F0000E02CCF81810CCF82020DCF8081041F0CD
:10170000470121F0300180E06F2B27DDB3F5005F4A
:1017100048D0B3F5805F7AD0702B40F08180D1E95A
:1017200001E3C968DCF8082043EA0E0322F47F4293
:1017300043EA01211143CCF80810DCF8081041F00D
:10174000770162E00BB1102B6AD1DCF8081021F0B0
:101750007001194341F0070157E000BF502B35D00D
:10176000602B5DD1D1F804E0C968DCF82030DCF8EA
:10177000202022F01002CCF82020DCF8182022F4DF
:10178000704242EA013123F0A00242EA0E12CCF884
:101790001810CCF82020DCF8081041F0670121F087
:1017A000100132E0D1E901E3C968DCF8082043EA1E
:1017B0000E0322F47F4243EA01211143CCF80810C2
:1017C000DCF8081041F480411FE000BFD1F804E0CC
:1017D000C968DCF82030DCF8202022F00102CCF8C7
:1017E0002020DCF8182022F0F00242EA011123F058
:1017F0000A0242EA0E02CCF81810CCF82020DCF8DD
:10180000081041F0570121F02001CCF80810002207
:10181000012180F83D10002180F83C10104680BD69
:101820000122F5E780B586B0014640F60000C4F21B
:101830000100096800F5105300229942049201D07A
:1018400006B080BD41F21801C4F202010A6842F0FC
:1018500004020A60096801F00401019101994FF442
:101860008071029102210391059102A9FFF7E8F826
:1018700006B080BD2DE9F04390F83C30012B04BF49
:101880000220BDE8F0834FEAB202032A3CD8DFE829
:1018900002F0034381BD00BF036842F600461D6AA3
:1018A0001A6AC4F2010622F001021A621A465C6842
:1018B00052F818CFB3428E68D1F800E025F0020547
:1018C00045EA06050CD1CE68D1E9057824F44074C8
:1018D00025F00C0526F004063C43354344EA080491
:1018E0002CF0730747EA0E075C609F614F68096937
:1018F0005F631D629F6947F008079F619F6927F03A
:1019000004079F61B2E000BF0121002280F83C2063
:101910000846BDE8F08300BF036842F600461D6A32
:101920001A6AC4F2010622F010021A621A46D3F8AB
:1019300004C052F8184FB3428E68D1F800E025F089
:10194000200545EA061510D1CE68D1E9058725F0B6
:10195000C0096FF0400505EA06152CF4406647EA19
:10196000080745EA090546EA870C24F4E64444EAF8
:101970000E27C3F804C09F614F6809699F631D6209
:101980009F6947F400679F619F6927F480679F61A3
:101990006BE000BF036842F600461D6A1A6AC4F293
:1019A000010622F480721A621A46D3F804C052F873
:1019B0001CEFB3428E680C6825F4007545EA0625D5
:1019C00011D1CE68D1E9058725F44069360240F28D
:1019D000FF4526EA05052CF4405647EA080745EA84
:1019E000090546EA071C2EF073072743C3F804C015
:1019F000DF614F680969DF631D62DF6947F008072F
:101A0000DF61DF6927F00407DF612FE0036842F63A
:101A10000047D3F820C01A6AC4F2010722F48052AA
:101A20001A621A465C6852F81C5FD1F800E08E68B2
:101A3000BB4204D14F6924F4804444EA87142CF457
:101A4000005747EA063725F4E64646EA0E265C606C
:101A5000DE614E6809691E641F62DF6947F4006732
:101A6000DF61DF6927F48067DF61090213681943CA
:101A700011600021002280F83C200846BDE8F08378
:101A8000002804BF0120704710B5044690F83D00BF
:101A900028B9002084F83C00204600F067F80220B6
:101AA00084F83D00206840F2FF730268C4F200032E
:101AB00042F6004C9842C4F2010C15DCB0F1804FA4
:101AC0001AD040F20041C4F20001884214D098427A
:101AD00018DCB0F1804F1DD040F20041C4F200018B
:101AE000884217D01AE000BF604505D040F60001DB
:101AF000C4F200018842EAD1A16822F070020A43D0
:101B00009842E6DD604505D040F60001C4F20001D0
:101B1000884203D1216922F440720A43A36922F06A
:101B20008001D4F804E0E268194360450160C262B4
:101B3000C0F828E002D16169CCF830100121416180
:101B4000002084F8461084F83E1084F83F1084F892
:101B5000401084F8411084F8421084F8431084F84F
:101B6000441084F8451084F83D1010BD7047000003
:101B700041B1082910D0042914BF00F1410200F13D
:101B80003F020BE090F83E20012A1CBF0120704765
:101B9000022280F83E2013E000F140021278012A70
:101BA0001CBF012070470222082907D0042914BF56
:101BB00080F8412080F83F2002E000BF80F84020FC
:101BC000006801F01F010122036A8A4023EA020132
:101BD0000162036A42F64441C4F201011A43A1F1D1
:101BE0004403984202620FD040F2FF71C4F2000138
:101BF000884213DCB0F1804F1CD040F20041C4F2A7
:101C00000001884216D01CE00A6842F400420A60D3
:101C100040F2FF71C4F200018842EBDD42F6004160
:101C2000C4F20101884205D040F60001C4F200016F
:101C3000884206D1816801F00701062904BF00200F
:101C40007047016841F00101016000207047000009
:101C50007047000070470000B0B582B004460068CD
:101C60000168C368426901F02F05202D03F02005AB
:101C700006D12DB1204602B0BDE8B04001F05EBEF5
:101C80005FEA017C1EBF02F0010E03F4907212EBBA
:101C90000E0253D1226B012A05D111F0100218BF98
:101CA00013F0100236D10A0622D513F080021FD09D
:101CB00094F8411021293FD1A168B1F5805F03D18B
:101CC0002169002900F07082216A4A1C2262097889
:101CD0004160E18C01390A04E1842DD1C16821F011
:101CE0008001C160C16841F04001C16002B0B0BD77
:101CF000490621D513F040011ED0C16821F04001F2
:101D0000C1602021204684F8411002B0BDE8B040F7
:101D100000F046BD002101910168019141680191E7
:101D200001994069400613D4A08DE18DE28D002A0F
:101D300018BF884240F0BA8102B0B0BDCA0718BFD0
:101D400013F4807240F0B6804A0700F1B980BEE01B
:101D5000E06B016849688AB2002AEDD0A38D9A42EF
:101D6000EAD2E1858069202800F09C80206850E854
:101D7000030F216820F4807041E80302DAB1206883
:101D800050E8030F216820F4807041E8030292B10B
:101D9000206850E8030F216820F4807041E80302B6
:101DA0004AB1206850E8030F216820F4807041E8B0
:101DB0000302002ADAD1206850E8050F216820F0DC
:101DC000010041E80502DAB1206850E8050F2168FA
:101DD00020F0010041E8050292B1206850E8050FAB
:101DE000216820F0010041E805024AB1206850E86E
:101DF000050F216820F0010041E80502002ADAD130
:101E0000206850E8050F216820F0400041E80502F5
:101E1000DAB1206850E8050F216820F0400041E861
:101E2000050292B1206850E8050F216820F04000BB
:101E300041E805024AB1206850E8050F216820F00A
:101E4000400041E80502002ADAD1202084F842004F
:101E500000202063206850E8030F216820F0100064
:101E600041E80302DAB1206850E8030F216820F04E
:101E7000100041E8030292B1206850E8030F216886
:101E800020F0100041E803024AB1206850E8030F37
:101E9000216820F0100041E80302002ADAD1E06B4B
:101EA000FEF7DEFB02206063A08DE18D401A81B257
:101EB000204674E1626C42F0010262644A0706D572
:101EC000BEF1000F03D0626C42F0020262648A0726
:101ED00006D5BEF1000F03D0626C42F004026264CA
:101EE000BCF1000F09D545EA0E02B2FA82F252099E
:101EF00003D1626C42F008026264626C002A3FF413
:101F00001BAF11F0200118BF002D03D0204601F0B7
:101F100015FD20684069616C00F0400001F0080187
:101F2000401800F0B58000BF206850E8030F21681A
:101F300020F4907041E80302BAB3206850E8030F20
:101F4000216820F4907041E8030272B3206850E8E1
:101F5000030F216820F4907041E803022AB320683F
:101F600050E8030F216820F4907041E80302002A32
:101F7000DAD11AE0206850E8050F216820F001004E
:101F800041E80502DAB1206850E8050F216820F029
:101F9000010041E8050292B1206850E8050F216870
:101FA00020F0010041E805024AB1206850E8050F21
:101FB000216820F0010041E80502002ADAD1206BF7
:101FC000012824D1206850E8030F216820F0100078
:101FD00041E80302DAB1206850E8030F216820F0DD
:101FE000100041E8030292B1206850E8030F216815
:101FF00020F0100041E803024AB1206850E8030FC6
:10200000216820F0100041E80302002ADAD12020E4
:1020100084F84200002020632068406940063FD5D4
:10202000206850E8050F216820F0400041E80502D3
:10203000DAB1206850E8050F216820F0400041E83F
:10204000050292B1206850E8050F216820F0400099
:1020500041E805024AB1206850E8050F216820F0E8
:10206000400041E80502002ADAD1E06BC0B143F636
:102070003111C0F600014163FEF716FB00283FF462
:102080005BAEE06B416B02B0BDE8B040084700BFFB
:102090002046FFF7DFFD0020606402B0B0BD00BF46
:1020A000204602B0BDE8B040FFF7D4BD401A216819
:1020B00051E8031F226821F4907142E80313DBB159
:1020C000216851E8031F226821F4907142E803134C
:1020D00093B1216851E8031F226821F4907142E80E
:1020E00003134BB1216851E8031F226821F490715A
:1020F00042E80313002BDAD1216851E8051F22685A
:1021000021F0010142E80513DBB1216851E8051F08
:10211000226821F0010142E8051393B1216851E8DA
:10212000051F226821F0010142E805134BB1216827
:1021300051E8051F226821F0010142E80513002B38
:10214000DAD1202184F8421000212163216851E86E
:10215000031F226821F0100142E80313DBB121685C
:1021600051E8031F226821F0100142E8031393B1E4
:10217000216851E8031F226821F0100142E803138F
:102180004BB1216851E8031F226821F0100142E899
:102190000313002BDAD1022281B22046626302B01F
:1021A000BDE8B040FFF754BD216A31F8022B6FF350
:1021B0005F22426021628CE5002804BF0120704745
:1021C00010B5044690F8410028B9002084F840007A
:1021D000204600F063F8242084F841002068D4E908
:1021E0000212C36823F40053C360036923F440530D
:1021F0001A430261D4E904231143C268194341F22E
:102200000C639A431143C1604169A26921F4407192
:10221000114343F60002C4F201029042416103D02F
:10222000FEF7E2FE02E000BFFEF7F2FE626819214F
:1022300048439100B0FBF1F048F21F51C5F2EB1199
:10224000A0FB01235A094FF69C73C0F6FF7302FBF3
:102250000300322303EB0010A0FB0101F02303EA8B
:102260005113206803EB0212C1F343111144816042
:10227000016921F490410161416921F02A01416124
:10228000C16841F40051C16000202021606484F8DD
:10229000411084F84210606310BD0000F0B585B0B5
:1022A000006844F20041C4F2000188424FF000018E
:1022B000CDE90311CDE9011122D043F60001C4F2AA
:1022C0000101884253D141F21800C4F202000168B2
:1022D000252441F48041016001684FF4806701F4D6
:1022E000804100910099016841F00401016000689B
:1022F00000F00400009000984FF4007019E000BF57
:1023000041F21800C4F202004168262441F4003171
:1023100041604168082701F400310091009901688B
:1023200041F004010160006800F004000090009892
:1023300004200190022040F6000502900320C4F220
:10234000010501AE049028463146FEF779FB0020D6
:10235000CDE90200284631460197FEF771FB204681
:1023600002210022FEF724FD2046FEF70DFD05B0F8
:10237000F0BD00002DE9F04381B0044690F8420022
:10238000202827D1884600294FF0010000F0C7809F
:102390001746002A00F0C380002022211D466064F9
:1023A00084F842102063FEF76DFCA785E785A168DD
:1023B0000746B1F5805F03D12069002800F0A680B0
:1023C00046464FF00008E08D002800F0A48005F19B
:1023D000010910E0022001B0BDE8F083406800264A
:1023E0006FF35F2028F8020BE08D0138E085E08D67
:1023F000002800F090802068016889060ED4B9F1A9
:10240000000F19D055B300BFFEF73CFCC01BA8421B
:1024100024D8206801688906F6D500BF002EDDD0DB
:10242000A168B1F5805F15D009B9216991B1406803
:1024300000F07F000FE000BF01688906EED401685C
:1024400089065CBF01685FEA8161E7D4016889069B
:10245000F2D5E3E7406806F8010BC5E7206850E8CD
:10246000030F216820F4D07041E80302E2B1206834
:1024700050E8030F216820F4D07041E803029AB1BC
:10248000206850E8030F216820F4D07041E803026F
:1024900052B1206850E8030F216820F4D07041E861
:1024A0000302002ADAD100BF206850E8050F216836
:1024B00020F0010041E80502DAB1206850E8050F7C
:1024C000216820F0010041E8050292B1206850E83F
:1024D000050F216820F0010041E805024AB120689B
:1024E00050E8050F216820F0010041E80502002AAC
:1024F000DAD1202084F8410084F84200002084F8DA
:102500004000032001B0BDE8F08300BF0026E08D4D
:1025100000287FF45CAF202084F84200002001B046
:10252000BDE8F083704700002DE9F04381B0044618
:1025300090F84100202840F0B180884600294FF0F3
:10254000010000F0D6801646002A00F0D28000205C
:10255000606421201D4684F84100FEF793FBA684A9
:10256000E684A1680646B1F5805F03D120690028A2
:1025700000F0988047464FF00008E18C2068002961
:1025800000F0968005F101090BE000BF47B317F892
:10259000011B4160E18C0139E184E18C002900F0EC
:1025A000878001680906F1D4B9F1000F0AD0EDB1B6
:1025B000FEF768FB801BA84218D82068016809064E
:1025C000F6D5E3E701680906E0D4016809065CBFB7
:1025D00001685FEA0161D9D401680906F2D5D5E73F
:1025E00038F8021B00276FF35F21D2E7206850E81C
:1025F000030F216820F4D07041E80302BAB32068C9
:1026000050E8030F216820F4D07041E8030272B350
:10261000206850E8030F216820F4D07041E80302DD
:102620002AB3206850E8030F216820F4D07041E8F5
:102630000302002ADAD11AE0206850E8050F216869
:1026400020F0010041E80502DAB1206850E8050FEA
:10265000216820F0010041E8050292B1206850E8AD
:10266000050F216820F0010041E805024AB1206809
:1026700050E8050F216820F0010041E80502002A1A
:10268000DAD1202084F8410084F84200002084F848
:102690004000032001B0BDE8F08300BF022001B07C
:1026A000BDE8F0830027E18C206800297FF46AAF41
:1026B0000168490619D4FDB1691C0DD101684906AC
:1026C00013D4016849065CBF01685FEA41610CD41C
:1026D00001684906F2D508E0FEF7D4FA801BA8424B
:1026E0000AD8206800684006F6D5202084F841000A
:1026F000002001B0BDE8F083206850E8030F216896
:1027000020F4D07041E80302002A3ED0206850E84F
:10271000030F216820F4D07041E80302AAB32068B7
:1027200050E8030F216820F4D07041E8030262B33F
:10273000206850E8030F216820F4D07041E80302BC
:10274000002AD9D121E000BF206850E8050F216898
:1027500020F0010041E80502002A3FF492AF206812
:1027600050E8050F216820F0010041E80502002A29
:102770003FF487AF206850E8050F216820F0010082
:1027800041E80502002A3FF47CAF206850E8050FBD
:10279000216820F0010041E80502002AD4D170E749
:1027A00070470000FEE70000FEE70000FEE70000C3
:1027B000B0B50479054600F0A5FC002C00F001043A
:1027C00002D02046B0BD00BF2846002100F0D2F95B
:1027D00004402046B0BD00002DE9F04F93B040F218
:1027E0008911C2F20001097882464FF0000019B148
:1027F00013B0BDE8F08F00BF9AF80410CDE91100C6
:102800000029CDE90F00CDE90D000C900B9000F0F0
:10281000A58001294FF0000108914FF000010791B8
:102820004FF0000106914FF0000105914FF00001BB
:1028300004914FF0000103914FF000014FF00002AE
:102840004FF000054FF000064FF0000C4FF0000E67
:102850004FF000094FF0000409914FF0000B4FF0CA
:1028600000084FF000014FF000034FF000070A97F7
:1028700040F03281DAF800006FF00C050168202288
:102880000D6049680BA940F2DC53FFF773FD9DF81A
:102890002C0042285AD19DF82D009DF82E109DF84D
:1028A0002F209DF83030084410449DF83110184412
:1028B0009DF8322008449DF8331010449DF83420D0
:1028C00008449DF8351010449DF8362008449DF8C2
:1028D000371010449DF8382008449DF839101044F2
:1028E0009DF83A2008449DF83B1010449DF83C2088
:1028F00008449DF83D1010449DF83E2008449DF882
:102900003F1010449DF8402008449DF841101044A9
:102910009DF8422008449DF8431010449DF844203F
:1029200008449DF8451010449DF8462008449DF841
:10293000471010449DF848200844BDF84A10104440
:10294000423009BAB0EB114F00F00C81DAF8000008
:102950002022016840F2DC5386E000BFDAF8000074
:1029600040F24F01C2F2000107224FF0FF33FFF7A0
:10297000DBFDDAF800006FF00C05016820220D6025
:1029800049680BA96423FFF7F5FC9DF82C00422849
:102990005AD19DF82D009DF82E109DF82F209DF8FE
:1029A0003030084410449DF8311018449DF832200E
:1029B00008449DF8331010449DF8342008449DF8D5
:1029C000351010449DF8362008449DF83710104407
:1029D0009DF8382008449DF8391010449DF83A209D
:1029E00008449DF83B1010449DF83C2008449DF895
:1029F0003D1010449DF83E2008449DF83F101044BF
:102A00009DF8402008449DF8411010449DF8422054
:102A100008449DF8431010449DF8442008449DF854
:102A2000451010449DF8462008449DF84710104476
:102A30009DF848200844BDF84A101044423009BAB5
:102A4000B0EB114F00F08E80DAF8000040F24F0139
:102A5000C2F2000107224FF0FF33FFF765FDDAF8FD
:102A600000002022016864230D6049680BA9FFF76C
:102A700081FC0020002878D09DF830009DF831308E
:102A80000A909DF835009DF8321009909DF83700A6
:102A90009DF8338003909DF839009DF834B0049080
:102AA0009DF83B009DF8364005909DF83D009DF84F
:102AB000389006909DF83F009DF83AE007909DF809
:102AC00041009DF83CC09DF83E609DF84050089044
:102AD0009DF842209DF8430002920A9ACDE90065D4
:102AE00043EA0227AAF8067048EA01270999AAF8DA
:102AF000087041EA0B260399AAF80A6041EA042506
:102B00000499AAF80C5041EA09230599AAF80E3055
:102B100041EA0E220699AAF8102041EA0C21AAF8EF
:102B200012100799009A41EA0221AAF81410089994
:102B3000019A41EA0221AAF81610029940EA0120FE
:102B4000BDF84410AAF8180008BABDF84610000CE9
:102B5000AAF81A0008BA000CAAF81C00012013B049
:102B6000BDE8F08F0120002886D1002013B0BDE819
:102B7000F08F00002DE9F04383B0044600798842CD
:102B80004FF0010000F0B7820D4640F28911C2F209
:102B900000010978002940F0AE82012D00F040814B
:102BA000002D40F0A68240F200062068C2F2000626
:102BB0000027314607224FF0FF3301970097FFF7B8
:102BC000B3FC20686FF00C0801680822C1F800808F
:102BD000496869463223FFF7CDFB9DF80000717DFF
:102BE000884223D19DF80100B17D88421ED19DF815
:102BF0000200F17D884219D19DF80300317E8842A0
:102C000014D19DF80400717E88420FD19DF8050013
:102C1000B17E88420AD19DF80600F17E884205D136
:102C20009DF80700317F884200F0468120683146D8
:102C300007224FF0FF3301970097FFF775FC2068DC
:102C4000082201683223C1F8008049686946FFF70D
:102C500091FB9DF80000717D884223D19DF8010011
:102C6000B17D88421ED19DF80200F17D884219D1C4
:102C70009DF80300317E884214D19DF80400717ED6
:102C800088420FD19DF80500B17E88420AD19DF897
:102C90000600F17E884205D19DF80700317F884209
:102CA00000F04F8120680027314607224FF0FF33A4
:102CB00001970097FFF738FC20686FF00C08016857
:102CC0000822C1F80080496869463223FFF752FBA9
:102CD0009DF80000717D884223D19DF80100B17DEF
:102CE00088421ED19DF80200F17D884219D19DF8DD
:102CF0000300317E884214D19DF80400717E884221
:102D00000FD19DF80500B17E88420AD19DF80600DA
:102D1000F17E884205D19DF80700317F884200F09E
:102D200059812068314607224FF0FF330197009701
:102D3000FFF7FAFB2068082201683223C1F80080FF
:102D400049686946FFF716FB9DF80000717D8842CF
:102D500023D19DF80100B17D88421ED19DF802006B
:102D6000F17D884219D19DF80300317E884214D14B
:102D70009DF80400717E88420FD19DF80500B17E58
:102D800088420AD19DF80600F17E884205D19DF85F
:102D90000700317F884200F06281002120680191A4
:102DA0000091314607224FF0FF33FFF7BDFB20684B
:102DB0006FF00C02016832230A60496869460822F4
:102DC000FFF7D8FA9DF80000717D884240F09681A7
:102DD0009DF80100B17D884240F090819DF802008D
:102DE000F17D884240F08A819DF80300317E88425F
:102DF00040F084819DF80400717E884240F07E811D
:102E00009DF80500B17E884240F078819DF806006B
:102E1000F17E884240F072819DF80700317F64E1C5
:102E200040F20008C2F20008206808F107060027F7
:102E3000314607224FF0FF3301970097FFF774FBED
:102E400020686FF00C0901680822C1F800904968F9
:102E500069463223FFF78EFA9DF8000098F81D109E
:102E600088422BD19DF8010098F81E10884225D188
:102E70009DF8020098F81F1088421FD19DF80300AA
:102E800098F82010884219D19DF8040098F8211074
:102E9000884213D19DF8050098F8221088420DD180
:102EA0009DF8060098F82310884207D19DF8070086
:102EB00098F82410884201D1042019E12068314695
:102EC00007224FF0FF3301970097FFF72DFB206893
:102ED000082201683223C1F8009049686946FFF76B
:102EE00049FA9DF8000098F81D1088422CD19DF8F1
:102EF000010098F81E10884226D19DF8020098F82B
:102F00001F10884220D19DF8030098F820108842B5
:102F10001AD19DF8040098F82110884214D19DF828
:102F2000050098F8221088420ED19DF8060098F806
:102F30002310884208D19DF8070098F82410884291
:102F400002D10320D4E000BF2068002731460722C9
:102F50004FF0FF3301970097FFF7E6FA20686FF014
:102F60000C0901680822C1F80090496869463223BB
:102F7000FFF700FA9DF8000098F81D1088422BD149
:102F80009DF8010098F81E10884225D19DF8020096
:102F900098F81F1088421FD19DF8030098F8201060
:102FA000884219D19DF8040098F82110884213D165
:102FB0009DF8050098F8221088420DD19DF8060072
:102FC00098F82310884207D19DF8070098F824103C
:102FD000884201D102208BE02068314607224FF061
:102FE000FF3301970097FFF79FFA206808220168D6
:102FF0003223C1F8009049686946FFF7BBF99DF894
:10300000000098F81D1088422CD19DF8010098F816
:103010001E10884226D19DF8020098F81F108842A1
:1030200020D19DF8030098F8201088421AD19DF80D
:10303000040098F82110884214D19DF8050098F8F2
:10304000221088420ED19DF8060098F8231088427D
:1030500008D19DF8070098F82410884202D1012079
:1030600046E000BF0021206801910091314607220F
:103070004FF0FF33FFF758FA20686FF00C02016839
:1030800032230A60496869460822FFF773F99DF800
:10309000000098F81D10884230D19DF8010098F882
:1030A0001E1088422AD19DF8020098F81F1088420D
:1030B00024D19DF8030098F8201088421ED19DF875
:1030C000040098F82110884218D19DF8050098F85E
:1030D0002210884212D19DF8060098F823108842E9
:1030E0000CD19DF8070098F82410884206D10020E2
:1030F00020B10120257103B0BDE8F083002003B0AA
:10310000BDE8F0832DE9F04389B040F24808044659
:103110000527C2F200086FF00C0901AE20680025F7
:10312000414607224FF0FF330895CDE90655CDE91A
:103130000455CDE902550195FFF7F6F920682022E4
:10314000016841F28833C1F8009049683146FFF7C1
:1031500011F99DF8040042285BD19DF805009DF807
:1031600006109DF807209DF80830084410449DF88B
:103170000910184408449DF80A109DF80B200844D3
:103180009DF80C1010449DF80D2008449DF80E1079
:1031900010449DF80F2008449DF8101010449DF82D
:1031A000112008449DF8121010449DF81320084483
:1031B0009DF8141010449DF8152008449DF8161031
:1031C00010449DF8172008449DF8181010449DF8ED
:1031D000192008449DF81A1010449DF81B2008443B
:1031E0009DF81C1010449DF81D2008449DF81E10E9
:1031F00010449DF81F20084410449DF82010BDF88D
:103200002220084411BAA0EB11404230B0FA80F0FD
:103210004509A7F1010715B938067FF47FAF3806D5
:103220004FF0000007D00121217140F28911C2F254
:1032300000010870012009B0BDE8F083704700006C
:103240002DE9F04140F28810C2F20000007840F60B
:1032500000040128C4F2010440F0AA81002600BF46
:103260005FFA86F8B8F11F0F4FF000073546204689
:103270004FF080014FF0010288BF0127B8F1200F05
:1032800028BF6035FDF7F8FCF82000F0C5FA45F0DE
:10329000800000F0F00000F0BFFA2801C0B200F09A
:1032A000BBFA322000F0E0FB204680210022FDF72F
:1032B000E3FC204680210122FDF7DEFCF82000F02F
:1032C000ABFA802000F0A8FAF80100F0A5FA32204D
:1032D00000F0CAFB204680210022FDF7CDFC2046ED
:1032E00080210122FDF7C8FCFA2000F095FA0020A9
:1032F00000F092FA002000F08FFA322000F0B4FBC8
:10330000204680210022FDF7B7FC204680210122C3
:10331000FDF7B2FCFA2000F07FFA002000F07CFA02
:10332000002000F079FA322000F09EFB2046802138
:103330000022FDF7A1FC204680210122FDF79CFC24
:10334000FA2000F069FA002000F066FA002000F090
:1033500063FA322000F088FB204680210022FDF72E
:103360008BFC204680210122FDF786FCFA2000F02C
:1033700053FA002000F050FA002000F04DFA3220FD
:1033800000F072FB204680210022FDF775FC2046EC
:1033900080210122FDF770FCFA2000F03DFA0020A8
:1033A00000F03AFA002000F037FA322000F05CFB1F
:1033B000204680210022FDF75FFC2046802101226B
:1033C000FDF75AFCFA2000F027FA002000F024FA5A
:1033D000002000F021FA322000F046FB2046802138
:1033E0000022FDF749FC204680210122FDF744FC24
:1033F000FA2000F011FA002000F00EFA002000F090
:103400000BFA322000F030FB204680210022FDF72D
:1034100033FC204680210122FDF72EFCFA2000F02B
:10342000FBF9002000F0F8F9002000F0F5F9322057
:1034300000F01AFB204680210022FDF71DFC2046EB
:1034400080210122FDF718FCFA2000F0E5F90020A8
:1034500000F0E2F9002000F0DFF9322000F004FB78
:10346000204680210022FDF707FC20468021012212
:10347000FDF702FCFA2000F0CFF9002000F0CCF9B3
:10348000002000F0C9F9322000F0EEFA2046802139
:103490000022FDF7F1FB204680210122FDF7ECFB25
:1034A000FA2000F0B9F9002000F0B6F9002000F091
:1034B000B3F9322000F0D8FA204680210022FDF72F
:1034C000DBFB204680210122FDF7D6FBFA2000F02D
:1034D000A3F9002000F0A0F9002000F09DF93220AF
:1034E00000F0C2FA204680210022FDF7C5FB2046ED
:1034F00080210122FDF7C0FBFA2000F08DF90020A9
:1035000000F08AF9002000F087F9322000F0ACFAD0
:10351000204680210022FDF7AFFB204680210122BA
:10352000FDF7AAFBFA2000F077F9002000F074F90B
:10353000002000F071F9322000F096FA2046802138
:103540000022FDF799FB204680210122FDF794FB24
:10355000FA2000F061F9002000F05EF9002000F090
:103560005BF9322000F080FA204680210022FDF72E
:1035700083FB204680210122FDF77EFBFA2000F02C
:103580004BF9002000F048F9002000F045F9322006
:1035900000F06AFA204680210022FDF76DFBB8F1A9
:1035A0003F0F06F10106FFF45BAEBDE8F08100BFFE
:1035B000204680210122FDF75FFBF82000F02CF966
:1035C000002000F029F9102000F026F9322000F048
:1035D0004BFA204680210022FDF74EFB0220BDE879
:1035E000F041FDF7BBB8000010B540F60004C4F28E
:1035F0000104204610210022FDF73EFB0A20FDF7C2
:10360000ADF8204610210122FDF736FB3220FDF7F0
:10361000A5F8204680210122FDF72EFBF82000F0BE
:10362000FBF8302000F0F8F8002000F0F5F8322028
:1036300000F01AFA204680210022FDF71DFB6E20C3
:1036400000F012FA204680210122FDF715FBF82038
:1036500000F0E2F8302000F0DFF8002000F0DCF8A5
:10366000322000F001FA204680210022FDF704FB01
:10367000282000F0F9F9204680210122FDF7FCFA0C
:10368000F82000F0C9F8002000F0C6F8802000F013
:10369000C3F8322000F0E8F9204680210022FDF72F
:1036A000EBFA6E2000F0E0F9204680210122FDF7C0
:1036B000E3FAF82000F0B0F8002000F0ADF8102098
:1036C00000F0AAF8322000F0CFF920468021002235
:1036D000FDF7D2FA0C20FDF741F8204680210122A7
:1036E000FDF7CAFAF82000F097F8002000F094F8EF
:1036F000602000F091F8322000F0B6F920468021D9
:103700000022FDF7B9FA0120FDF728F820468021B4
:103710000122FDF7B1FAF82000F07EF8002000F059
:103720007BF8C02000F078F8322000F09DF92046A8
:1037300080210022FDF7A0FA0120FDF70FF82046B6
:1037400080210122FDF798FAF82000F065F80020AA
:1037500000F062F8202000F05FF8322000F084F9D9
:10376000204680210022FDF787FA0120BDE81040A5
:10377000FCF7F4BF70B5013840F600041546022886
:103780009ABF21A252F820008020C4F2010440EA2E
:103790000106204680210122FDF76EFAF82000F094
:1037A0003BF806F0F00000F037F83001C0B200F04E
:1037B00033F8322000F058F9204680210022FDF72E
:1037C0005BFA2E78002E08BF70BD013D2046802197
:1037D0000122FDF751FAFA2000F01EF806F0F00081
:1037E00000F01AF83001C0B200F016F8322000F0F4
:1037F0003BF9204680210022FDF73EFAAE780135E4
:10380000002EE3D170BD00BF9000000088000000D2
:103810009800000070470000B0B540F60004C4F204
:1038200001040546C20920464021FDF725FA20463D
:1038300020210022FDF720FA204620210122FDF759
:103840001BFAC5F3801220464021FDF715FA2046E9
:1038500020210022FDF710FA204620210122FDF749
:103860000BFAC5F3401220464021FDF705FA204629
:1038700020210022FDF700FA204620210122FDF739
:10388000FBF9C5F3001220464021FDF7F5F920466B
:1038900020210022FDF7F0F9204620210122FDF72A
:1038A000EBF9C5F3C00220464021FDF7E5F92046BB
:1038B00020210022FDF7E0F9204620210122FDF71A
:1038C000DBF9C5F3800220464021FDF7D5F92046FB
:1038D00020210022FDF7D0F9204620210122FDF70A
:1038E000CBF9C5F3400220464021FDF7C5F920463B
:1038F00020210022FDF7C0F9204620210122FDF7FA
:10390000BBF905F0010220464021FDF7B5F920463C
:1039100020210022FDF7B0F9204620210122BDE838
:10392000B040FDF7A9B90000FDF7B2B9704700003B
:10393000406A0021C185C184FEF78CB981B090F83E
:103940004210222921D183680246B3F5805F09D154
:1039500052F8281F52F8183C002B63D003685B68AC
:103960000AE000BF52F8281F13B90369002BF5D0F5
:1039700003685B6803F07F030B701168013111600D
:10398000C18D01390A04C18502D001B0704700BF62
:103990000168CA6822F02002CA60CA6822F48072F4
:1039A000CA604A6922F001024A61202180F842106F
:1039B00000214163026B012A3CD10163016851E897
:1039C000031F026821F0100142E80313DBB1016814
:1039D00051E8031F026821F0100142E8031393B17C
:1039E000016851E8031F026821F0100142E8031347
:1039F0004BB1016851E8031F026821F0100142E851
:103A00000313002BDAD101680A68D20606D500221A
:103A100000920A680092496800910099818D01B076
:103A2000FEF716B9026852686FF35F2221F8022B85
:103A30008162A5E701B0FEF775BD000040F24010BD
:103A4000C2F20000FEF708B940F21C20C2F20000EA
:103A5000FEF702B9FEE7000040F2D410C2F2000007
:103A6000FDF7DEBDFCF77ABE40F2D411C2F20001D0
:103A7000096800224A6206E04A6A824228BF70470B
:103A80004A6A824205D24A6A824202D24A6A824223
:103A9000F2D370472DE9F04140F2C007C2F20007AF
:103AA000B87918B1FFF7CCFB0020B871BA7BFB7B6B
:103AB00007F141044BA12046FCF78EFB00200021BA
:103AC0002246FFF757FEFE690021304600F007FF4F
:103AD000B0B986F0004001F019F80546387400EBE3
:103AE0008000400001F02EF800218046CCF2201129
:103AF000304601F0A7F8414601F070F914E000BF2C
:103B0000304601F003F80546387400EB80004000B1
:103B100001F018F800218046C4F22011304601F06F
:103B200091F8414601F05AF900F0F0FF034678742D
:103B30002FA120462A46FCF74FFB002005212246F4
:103B4000FFF718FE2CA201200021FFF713FE40F220
:103B50002018C2F2000844F61075B8F80C2007F1DE
:103B60003C04C0F6000520462946FCF735FB012041
:103B700003212246FFF7FEFD44F63A76C0F6000622
:103B8000012005213246FFF7F5FD1DA2022000218C
:103B9000FFF7F0FDB8F80E2020462946FCF71CFB85
:103BA000022003212246FFF7E5FD022005213246CF
:103BB000FFF7E0FD14A203200021FFF7DBFDB8F8BA
:103BC000102020462946FCF707FB0320032122464C
:103BD000FFF7D0FD032005213246BDE8F041FFF795
:103BE000C9BD00BF483A2025642E256400000000AE
:103BF000543A25642E256400504D312E303A000091
:103C0000504D322E353A0000504D3130203A0000F0
:103C1000F0B581B040F2C006C2F20006B07918B12A
:103C2000FFF70EFB0020B071B07C032812D00228F1
:103C300020D001282CD142F22000C0F22000C6F88A
:103C4000570045F2495044F62051C2F24D00C4F2EB
:103C500045412BE044F24C50C0F22000C6F857001A
:103C600044F6521045F22041C4F64240C5F24521C7
:103C70001CE000BF42F22000C0F2200044F22021EC
:103C8000C6F857004FF02030C4F241410EE000BFAB
:103C900042F22000C0F22000C6F8570042F2440071
:103CA00044F22071C2F22000C4F64F7106F14104C3
:103CB00006F15005C6E9141078A120462A46FCF703
:103CC0008BFA002000212246FFF754FDF0790328EB
:103CD00012D8DFE800F0031F2D3B00BF42F22000A6
:103CE00045F2554142F22002C0F22000C2F24F01DB
:103CF000C4F2201236E000BF44F6537045F25F3143
:103D000044F64F62C0F25200C4F64561C5F64C124B
:103D100028E000BF42F2200045F24E5142F220025C
:103D2000C0F22000C4F64141C4F24D121AE000BFB7
:103D300042F2200044F2522142F22002C0F220005E
:103D4000C2F24F01C5F254520CE000BF42F2200013
:103D500044F2455142F22002C0F22000C2F250016A
:103D6000C4F65342C6E91421B0654FA120462A4645
:103D7000FCF732FA012000212246FFF7FBFC40F25B
:103D80003007C2F20007F878042813D8DFE800F003
:103D9000041C2A38460000BF42F2200044F652714B
:103DA00042F22002C0F22000C2F22001C4F25A52B4
:103DB00040E000BF42F2540044F64701C0F2200048
:103DC000C5F2453132E000BF42F2200044F25751C3
:103DD00042F22002C0F22000C2F25201C4F64C723C
:103DE00028E000BF42F2200045F24F7142F220026B
:103DF000C0F22000C2F22001C4F620421AE000BF47
:103E000042F2200044F6441142F22002C0F22000A7
:103E1000C4F65551C4F24D520CE000BF42F22000EE
:103E200044F64701C0F22000C2F2200142F2200213
:103E3000C4F64812C6E91421B0651DA120462A46E1
:103E4000FCF7CAF9022000212246FFF793FC3878DC
:103E500001280BD142F25300C0F22000C6F85300F3
:103E600045F62010C5F2453030650AE042F22000E8
:103E7000C0F22000C6F8530044F62060C2F24F00A2
:103E800030650DA120462A46FCF7A6F90320002143
:103E9000224601B0BDE8F040FFF76CBC4149525FDB
:103EA000513A2573000000004D4F44453A257300F8
:103EB00046414E203A25730048554D495F434F4DCA
:103EC000503A25730000000098B0FCF7EFFE002484
:103ED0000120CDE90544CDE90344009004904FF45E
:103EE000E0104FF48031022509906846CDE90114B5
:103EF000CDE90751FDF7A0F820B1EFF3108072B6BD
:103F0000FEE700BF0F20CDE90A054FF48060CDE940
:103F10000D040AA802210C94FCF786FF20B1EFF3F0
:103F2000108072B6FEE700BF41F21800C4F2020032
:103F3000016840F6000941F0100101600168C4F217
:103F4000010901F0100100910099016809F500676D
:103F500041F0200101600168002201F02001009180
:103F6000009901684FF4005641F0040101600168B6
:103F7000002501F0040100910099016841F0080159
:103F8000016000684FF4005100F0080000900098B4
:103F90003846FCF771FE4846012101224FF0010B23
:103FA000FCF76AFE484640F6F2010022FCF764FE88
:103FB00009F58068404646F22121002246F2212A76
:103FC000FCF75AFECDE9006B6E46022438463146B6
:103FD00002950394FCF734FD40F6F300CDE9000BA5
:103FE00048463146CDE90254FCF72AFD40463146A9
:103FF000CDE900ABCDE90254FCF722FD00244FF4DB
:104000008057C1F22104484631460097CDE9014569
:10401000FCF716FD4FF40040CDE900054846314657
:104020000295FCF70DFD4FF4EC708DE83100404631
:104030003146FCF705FD092003210022FCF7B8FEFC
:104040000920FCF7A1FE0A2003210022FCF7B0FEA4
:104050000A20FCF799FE172003210022FCF7A8FE96
:104060001720FCF791FE282003210022FCF7A0FE78
:104070002820FCF789FE40F28C1009F51051C2F29D
:10408000000064231795CDE91555CDE91255069525
:10409000472280E82600C0E90335C0E90555FDF751
:1040A0001FFA28B1EFF3108072B600BFFEE700BF21
:1040B00040F28C10C2F2000014A91497FDF7E4FA44
:1040C00020B1EFF3108072B6FEE700BF40F28C1013
:1040D000C2F20000FDF7D4FC20B1EFF3108072B6FD
:1040E000FEE700BF40F28C10C2F2000012A9FDF7FB
:1040F000B9F928B1EFF3108072B600BFFEE700BF38
:1041000060200A9028200B9040F28C100024C2F20C
:1041100000000AA90022CDE90C44CDE90E44109418
:10412000FDF7A8FB20B1EFF3108072B6FEE700BFE9
:104130004FF40050059040F28C10C2F20000694626
:104140000494CDE90244CDE900440794FDF764F9F5
:1041500020B1EFF3108072B6FEE700BF40F28C1082
:10416000C2F20000FDF75EFB40F2D4100021C2F263
:1041700000004FF0804247234FF6FE770391CDE9D0
:104180000111CDE90A11C0E90023C0E9021701615C
:104190008161FDF7A5F928B1EFF3108072B600BF79
:1041A000FEE700BF4FF48050009040F2D410C2F2FE
:1041B00000006946FDF768FA20B1EFF3108072B68F
:1041C000FEE700BF40F2D410C2F200000AA9FDF7DA
:1041D00049F918B1EFF3108072B6FEE740F22010F3
:1041E00009F54051C2F2000040F8201F4FF416516B
:1041F00000240C25C0E90114C0E90344C0E90554BA
:10420000C461FDF7D9FF18B1EFF3108072B6FEE775
:1042100040F21C20A9F54441C2F200004FF4E13203
:1042200080E81600C0E90344C0E90554C461FDF705
:10423000C3FF18B1EFF3108072B6FEE740F28C1A9C
:10424000C2F2000A504600210027FDF791FC40F21F
:104250002010C2F2000000F1200101600771FEF79A
:10426000A7FAFFF7F9FBFFF7BFF944F64C72C0F667
:10427000000200200021FFF77DFA44F61572C0F617
:104280000002012000210125FFF774FA44F6407274
:10429000C0F6000202200121FFF76CFA44F62672F4
:1042A000C0F6000203200221FFF764FA4FF47A609F
:1042B000FFF7D8FBFEF7C4FFFCF7E4FC40F2C00BAD
:1042C000C2F2000BCBF81800FCF7DCFCCBF82400A2
:1042D00048464FF400610122FCF7CEFC40F2300664
:1042E00001248BF8045040F2DC55C2F2000603E0D2
:1042F000FCF7C8FCCBF82800FCF7C4FCDBF818106E
:10430000401AA8420BD340F22010C2F20000FEF780
:1043100063FA012803D1FCF7B5FCCBF81800FCF7D1
:10432000B1FCDBF82410401AA84264D3FCF720F952
:10433000002855D0FCF7CAF88BF80800FCF7C6F83F
:104340008BF80900FCF7C2F88BF80A00FCF7BEF8FE
:104350008BF80B00FCF7BAF89BF808609BF8097023
:104360009BF90A509BF80B10BA192A440A44D3B29D
:1043700083428BF80C008BF80D2031D1E8B241EA72
:10438000002000F0DFFB002D40F20005C4F22015F4
:10439000294644BF0021CCF2201100F0C1FACBF82D
:1043A0001C0047EA062000F0CDFB294600F0B8FAD1
:1043B0000646CBF8200000F0A9FB8BF80E0000EBBE
:1043C0008000400000F0BEFB07463046294600F062
:1043D00039FC394600F002FD00F098FB8BF80F0025
:1043E000FCF750FC40F23006002740F2DC55C2F2E8
:1043F0000006CBF824007078022805D0012807D1E8
:10440000FFF748FB13E000BFFFF702FC0FE000BF1F
:104410009BF8060018B1FEF713FF8BF8067044F600
:104420002E7200200021C0F60002FFF7A3F94846D3
:104430004FF40041FCF712FC20B1CBF814708BF85C
:10444000134008E0BBF8140040F2252188429CBFCD
:104450000130ABF8140048464FF40041FCF7FEFB76
:10446000B0B9BBF81400B0F5FA7F11D9FCF70AFC1B
:10447000DBF83810401AB0F5FA7F13D3FCF702FCD2
:10448000BBF81610CBF83800481CABF816000BE050
:10449000404620210022FCF7EFFB9BF80200012898
:1044A00007D028E0BBF8160080B20A2868D18BF844
:1044B00002409BF8030001280CD0E0B940464FF4BD
:1044C00000510122FCF7D8FBFCF7DCFBCBF83400F1
:1044D0008BF80340FCF7D6FBDBF83410401A41F6AA
:1044E0005831884207D340464FF400510022FCF770
:1044F000C3FBABF802709BF8010070B1404601218C
:104500000122FCF7B9FB6420FFF7ACFA4046012119
:104510000022FCF7B1FB8BF80170FCF7B3FBDBF872
:104520002C10401A40F6B83188426BD340F220126A
:10453000C2F200029089D189128A0C2898BF0C29F6
:1045400036D9382828BF382936D2A0F10D03152BCB
:1045500003D8222998BF9A2A36D3222898BF992AAD
:104560002ED9373A0226632A38BF012623294FF075
:10457000020128BF0E46232828BF0E4625E000BFB3
:104580001428FFF48AAFFCF77DFBDBF83010401AEB
:10459000B0F5FA7FFFF481AF40462021FCF764FBC1
:1045A000FCF770FBCBF830008BF8137075E700BF99
:1045B000372AC6D2002608E0FE2AC6D9032604E020
:1045C000A1F10D03162BCCD2012601214846002271
:1045D0008BF81260022E38BF0221FCF74DFB0A2037
:1045E000FFF740FA022148460122022E38BF01217E
:1045F000FCF742FBFCF746FB40F23006C2F2000635
:10460000CBF82C00FCF73EFBDBF82810401A41F2F7
:1046100088318842FFF470AE9BF807000138032808
:1046200010D8DFE800F0091B270300BFDAF800000C
:104630004763F77037705BE6B07801285ED1F4709D
:10464000282076E09BF81200022863D844F6C8615F
:10465000C0F6000151F8201002305DE0DAF80000E9
:1046600046214163307800284FF00500F07068D192
:104670003EE600BFDAF80000282141633078F4708C
:1046800000283FF435AEDBF820A000215046C4F2EC
:10469000602100F01DF900BB00219BF8045050463A
:1046A000C4F2A01100F029F9B8B9B5B9FCF7EAFADB
:1046B000B168401A47F2305188420ED39BF813007C
:1046C00001280AD148464FF400610122FCF7D4FAD0
:1046D000ABF80440FCF7D6FAB060DBF8200000210C
:1046E000C4F2602100F002F940F28C1A0028C2F2F4
:1046F000000A40F2DC5566D0FAE500BFF0780138D8
:10470000C0B2032814D844F6F061C0F6000151F895
:1047100020000EE005204621DAF800200124516334
:10472000F070012030703146DBF8206088700AE0BC
:104730004620DAF8001048633078B77000283FF45C
:10474000D7ADDBF8206000213046C4F2602100F0D4
:10475000BFF840BB00219BF804503046C4F2A011C2
:1047600000F0CBF8F8B9F5B9FCF78CFA40F230015B
:10477000C2F200018968401A47F23051884212D3D0
:104780009BF8130001280ED148464FF40061012226
:10479000FCF772FAABF80440FCF774FA40F230010F
:1047A000C2F200018860DBF820000021C4F2602121
:1047B00000F09CF840F23006002840F2DC55C2F2CE
:1047C00000067FF495AD9BF8040001287FF490ADBE
:1047D000FCF758FAB168401A47F230518842FFF4AA
:1047E00087AD8BF80540FCF74DFAB06080E500001E
:1047F00090EA010F48BF81F0004100F1F682421AB1
:104800003CBF801A89184FEAD052A2EBD1534FF027
:104810007F4C1CEA410F18BF9CEA026F00F03B80FE
:104820004FF0004C4CEA00204CEA012121FA03FC35
:1048300010EB0C0C1ED202F1FF325FEA1C2040EBA1
:10484000C25038BF70471CF07F0F4FEA400C18BFB2
:10485000BCF17F4F38BF7047C3F12003994008BFB8
:1048600020F00100BCF17F4F38BF7047A0F1C0407D
:1048700000F0AFBA4FEA3C00000A40EBC25028BF3C
:104880001CF0FF0F4FEA400CE6D018BFBCF17F4F81
:1048900038BF7047EAE79CEA026F05D010EA5C0F68
:1048A00008BF00F00040704710B500F04CFA00BFA0
:1048B00064FBBE3E10B500F0F5F80CBF01200020EF
:1048C00010BD10B500F0EEF814BF0120002010BD9F
:1048D00010B500F04FF98CBF0120002010BD10B5BD
:1048E00000F048F92CBF0120002010BD10B500F0E9
:1048F00075F994BF0120002010BD10B500F06EF9CD
:1049000034BF0120002010BD401058BFC0F140400E
:10491000491058BFC1F140418142EFF30080704718
:104920004FF47F0C1CEAD0121EBF1CEAD11392EA8E
:104930000C0F93EA0C0F00F0858090EA010F48BF3E
:1049400042F4807240F4000C41F400002CF07F41EE
:1049500020F07F4000B5A2EB030281420FF2081C59
:10496000ACEB504E9EF800E0C0F100004FEA4E0E56
:1049700000FB0EFC38BF49004FEA2C1C0CFB0EF369
:104980004FEACE1E0EEB635E4FEA112C0EFB0CFCC1
:104990004FEAC1214FEA1C5300FB031102F5FA0252
:1049A0004FEA112C0EFB0CFC4FEA01314FEADC4CB4
:1049B00000FB0C1142EB2242C14228BF09184CEB0C
:1049C00003335DF804EB10EB410143EBC250B2F549
:1049D0007C0F38BF704729D512F0F00F1CBF00F1D3
:1049E000C04000F000407047008182838485868744
:1049F00088898B8C8D8E8F919293959697999A9C9E
:104A00009D9FA0A2A3A5A7A8AAACAEB0B2B3B5B70C
:104A1000B9BCBEC0C2C5C7C9CCCED1D4D7D9DCDFE2
:104A2000E2E6E9ECF0F3F7FAFE0000004FEA400C92
:104A30000CF1807CBCF17E4F28BF7047B0F1C040C4
:104A400000F0C7B90CEAD11390EA010F48BF42F455
:104A50008072624538BF634507D213F47F0F16D0CA
:104A600080EA010000F00040704710B500F06BF9DB
:104A7000097EFC3E00F005B880EA010000F000402D
:104A8000704780EA010000F0004000F0A2B912F483
:104A90007F0F04BF0248704780EA010000F099B917
:104AA0000000C07F50EA010C00F113801CF5000FDC
:104AB00058BFBCF5000F01D48842704707D710F5E6
:104AC000000F58BF11F5000F15D488427047894276
:104AD00070471CF5000F04D5BCF5000FF7D58142D7
:104AE00070474FF0807C1CEB400F38BF1CEB410F30
:104AF00001D28142704710B500F025F99224490097
:104B00004FF000504FF08051FFF7FEBE41000B0EFA
:104B1000D3F19E0208D950F400034FEA032323FA8D
:104B200002F048BF4042704710B500F00CF900BFDA
:104B300049922480002070476FF0004282EA2000F2
:104B40007047000010F0004148BF4042B0FA80F3C7
:104B500010FA03F2C3F19D030BD051EAC35101EBEC
:104B60001220530638BF704700F1010008BF20F043
:104B70000100704750EA010C00F113801CF5000F92
:104B800058BFBCF5000F01D48842704707D710F515
:104B9000000F58BF11F5000F15D4884270478942A5
:104BA00070471CF5000F04D5BCF5000FF7D5814206
:104BB00070474FF0807C1CEB400F38BF1CEB410F5F
:104BC00001D28142704710B500F0BDF8922449002F
:104BD0004FF080504FF00051FFF796BE50EA010CA5
:104BE00000F113801CF5000F58BFBCF5000F01D475
:104BF0008842704707D710F5000F58BF11F5000F16
:104C000015D488427047894270471CF5000F04D5BF
:104C1000BCF5000FF7D5814270474FF0807C1CEB4C
:104C2000400F38BF1CEB410F01D28142704710B5D5
:104C300000F089F8922449004FF000504FF0805165
:104C4000FFF762BE4FF47F0C1CEAD0121EBF1CEAB5
:104C5000D11392EA0C0F93EA0C0F00F0478090EA10
:104C6000010F48BF42F480724FF0004C4CEA002024
:104C70004CEA012102EB0302A0FB0113A2F50002A2
:104C8000002918BF43F001035B0028BF4FEA33033C
:104C900042EB22425FEA132C4CEBC2502EBFBCEB1E
:104CA000436FB2F57C0F70474FEA036CBCF1004FC5
:104CB00008BF20F00100B2F57C0F38BF70470BD55C
:104CC00082F0FF0212F5803FC8BF704700F1C0407C
:104CD000D8BF00F00040704700F5000C5FEA4C0CB4
:104CE00048BF7047B0F1C04000F073B80CEAD11370
:104CF00090EA010F48BF42F48072624538BF6345B5
:104D000004D280EA010000F00040704710B500F0C6
:104D10001AF800BF8900013E00F007B800F009B89A
:104D20005FEA410C5FEA1C6C08D080EA010000F0E9
:104D300050B85FEA400C5FEA1C6CF6D14FF00040BF
:104D4000A0F5800070470EF1020E2EF0030E5EF803
:104D5000044B244204D44FEA4102B2F17F4F11D8F0
:104D60004FEA4003B3F17F4F0CD80ED14FEAD07C0D
:104D70000CEB4C0C0CF1020CB2F17F4F08BF4CEB6A
:104D8000D17C04E04FF0080C01E04FEAD17C0CEB41
:104D90004C0324FA03F404F00704B4F1040C06D223
:104DA0000EEB840CBDE810404CF0010C6047DFE8CE
:104DB0000CF0070802024FF00040A0F5800010BD83
:104DC0000846420018BFD2F1807288BF00F0004050
:104DD00010BDFF2141EAD050C005704790EA010F95
:104DE00048BF81F000413FF50AAD421A04D882F075
:104DF0000042A0EB020011444FEAD052A2EBD15383
:104E00004FF07F4C1CEA410F18BF9CEA026F4AD05A
:104E10004FF0004C4CEA00204CEA012121FA03FC3F
:104E2000B0EB0C0C0FD412F0FE0F36D05FEA4C0042
:104E30001DD5001240EBC25038BF70471CF03F0F29
:104E400018BF70470BE05FEA1C20A2F1010240EBA3
:104E5000C25038BF70471CF07F0F18BF7047C3F1B6
:104E60002003994014BF401E20F0010070474FEA14
:104E70001223800808BF7047B0FA80FCA2EB0C0236
:104E8000CCF1280C60FA0CF093EA122F04BF00EB6F
:104E9000C25070474FEAC3707047130A5FEADC10D4
:104EA00008BF7047F6E79CEA026F04D010EA5C0F77
:104EB00008BF0020704710B5FFF745FF40DFF63E02
:104EC00081F00040704700002F0000002F0000001C
:104ED0003C0000000000000000000000010203048C
:104EE0000607080900000000010203040102000097
:104EF000280000002F000000360000003C000000E9
:104F000002030405060708090A0B0C0D0E0F10100A
:104F100025642020002A2A2A2A2A2A2A2A2A2A2AFA
:104F20002A2A2A2A2A003139313239353000446997
:104F30007370204D6F646520330075672F6D3300EB
:104F40004C452056414E2044554E4700444F204189
:104F50004E20544F54204E47484945500000000011
:104F6000804F0008000000205800000028010008C1
:104F7000D84F000858000020100800004401000825
:104F8000424DE1FF00026F424DE1FF010270424DD0
:104F9000E4FF000272424D0004E1000174424D0042
:104FA00004E1010175424D0004E4000177000000B6
:104FB0000101010124FAFFFFA015FFFF010000001D
:104FC000100000000024F400424DE4FF010273428F
:084FD0004DE2FFFF036F00003A
:04000005080000ED02
:00000001FF
